:10000000020003787FE4F6D8FD75811902004A02E8
:10001000008FE493A3F8E493A34003F68001F20871
:10002000DFF48029E493A3F85407240CC8C333C435
:10003000540F4420C8834004F456800146F6DFE4A0
:10004000800B01020408102040809000AEE47E0185
:100050009360BCA3FF543F30E509541FFEE493A313
:1000600060010ECF54C025E060A840B8E493A3FA25
:10007000E493A3F8E493A3C8C582C8CAC583CAF0B1
:10008000A3C8C582C8CAC583CADFE9DEE780BEC28D
:10009000B67B04E4F580AF03740D2BF8E6FD120087
:1000A000D97F0A7E001200C50BBB08E780E30A1067
:1000B0003F065B4F666D7D077F6F080800010203F6
:1000C0000405060700AD07AC06E4FEEEC39DE49C04
:1000D00050061200E70E80F3225390C7EF333333FC
:0D00E00054F842908D8022007F2BDFFE221D
:00000001FF
